{
  "contractName": "CoinFactory",
  "abi": [
    {
      "inputs": [
        {
          "internalType": "uint256",
          "name": "",
          "type": "uint256"
        }
      ],
      "name": "coins",
      "outputs": [
        {
          "internalType": "contract ERC",
          "name": "",
          "type": "address"
        }
      ],
      "stateMutability": "view",
      "type": "function",
      "constant": true
    },
    {
      "inputs": [
        {
          "internalType": "string",
          "name": "_name",
          "type": "string"
        },
        {
          "internalType": "string",
          "name": "_symbol",
          "type": "string"
        }
      ],
      "name": "create",
      "outputs": [],
      "stateMutability": "nonpayable",
      "type": "function"
    }
  ],
  "bytecode": "0x608060405234801561001057600080fd5b50611a43806100206000396000f3fe60806040523480156200001157600080fd5b50600436106200003a5760003560e01c8063198e2b8a146200003f578063c6610657146200005f575b600080fd5b6200005d600480360381019062000057919062000302565b62000095565b005b6200007d6004803603810190620000779190620003c2565b6200013e565b6040516200008c91906200047f565b60405180910390f35b6000828230604051620000a8906200017e565b620000b6939291906200054a565b604051809103906000f080158015620000d3573d6000803e3d6000fd5b5090506000819080600181540180825580915050600190039060005260206000200160009091909190916101000a81548173ffffffffffffffffffffffffffffffffffffffff021916908373ffffffffffffffffffffffffffffffffffffffff160217905550505050565b600081815481106200014f57600080fd5b906000526020600020016000915054906101000a900473ffffffffffffffffffffffffffffffffffffffff1681565b611478806200059683390190565b6000604051905090565b600080fd5b600080fd5b600080fd5b600080fd5b6000601f19601f8301169050919050565b7f4e487b7100000000000000000000000000000000000000000000000000000000600052604160045260246000fd5b620001f582620001aa565b810181811067ffffffffffffffff82111715620002175762000216620001bb565b5b80604052505050565b60006200022c6200018c565b90506200023a8282620001ea565b919050565b600067ffffffffffffffff8211156200025d576200025c620001bb565b5b6200026882620001aa565b9050602081019050919050565b82818337600083830152505050565b60006200029b62000295846200023f565b62000220565b905082815260208101848484011115620002ba57620002b9620001a5565b5b620002c784828562000275565b509392505050565b600082601f830112620002e757620002e6620001a0565b5b8135620002f984826020860162000284565b91505092915050565b600080604083850312156200031c576200031b62000196565b5b600083013567ffffffffffffffff8111156200033d576200033c6200019b565b5b6200034b85828601620002cf565b925050602083013567ffffffffffffffff8111156200036f576200036e6200019b565b5b6200037d85828601620002cf565b9150509250929050565b6000819050919050565b6200039c8162000387565b8114620003a857600080fd5b50565b600081359050620003bc8162000391565b92915050565b600060208284031215620003db57620003da62000196565b5b6000620003eb84828501620003ab565b91505092915050565b600073ffffffffffffffffffffffffffffffffffffffff82169050919050565b6000819050919050565b60006200043f620004396200043384620003f4565b62000414565b620003f4565b9050919050565b600062000453826200041e565b9050919050565b6000620004678262000446565b9050919050565b62000479816200045a565b82525050565b60006020820190506200049660008301846200046e565b92915050565b600081519050919050565b600082825260208201905092915050565b60005b83811015620004d8578082015181840152602081019050620004bb565b60008484015250505050565b6000620004f1826200049c565b620004fd8185620004a7565b93506200050f818560208601620004b8565b6200051a81620001aa565b840191505092915050565b60006200053282620003f4565b9050919050565b620005448162000525565b82525050565b60006060820190508181036000830152620005668186620004e4565b905081810360208301526200057c8185620004e4565b90506200058d604083018462000539565b94935050505056fe60806040526008600560146101000a81548160ff021916908360ff1602179055503480156200002d57600080fd5b5060405162001478380380620014788339818101604052810190620000539190620002b9565b82600390816200006491906200059e565b5080600560006101000a81548173ffffffffffffffffffffffffffffffffffffffff021916908373ffffffffffffffffffffffffffffffffffffffff1602179055508160049081620000b791906200059e565b5050505062000685565b6000604051905090565b600080fd5b600080fd5b600080fd5b600080fd5b6000601f19601f8301169050919050565b7f4e487b7100000000000000000000000000000000000000000000000000000000600052604160045260246000fd5b6200012a82620000df565b810181811067ffffffffffffffff821117156200014c576200014b620000f0565b5b80604052505050565b600062000161620000c1565b90506200016f82826200011f565b919050565b600067ffffffffffffffff821115620001925762000191620000f0565b5b6200019d82620000df565b9050602081019050919050565b60005b83811015620001ca578082015181840152602081019050620001ad565b60008484015250505050565b6000620001ed620001e78462000174565b62000155565b9050828152602081018484840111156200020c576200020b620000da565b5b62000219848285620001aa565b509392505050565b600082601f830112620002395762000238620000d5565b5b81516200024b848260208601620001d6565b91505092915050565b600073ffffffffffffffffffffffffffffffffffffffff82169050919050565b6000620002818262000254565b9050919050565b620002938162000274565b81146200029f57600080fd5b50565b600081519050620002b38162000288565b92915050565b600080600060608486031215620002d557620002d4620000cb565b5b600084015167ffffffffffffffff811115620002f657620002f5620000d0565b5b620003048682870162000221565b935050602084015167ffffffffffffffff811115620003285762000327620000d0565b5b620003368682870162000221565b92505060406200034986828701620002a2565b9150509250925092565b600081519050919050565b7f4e487b7100000000000000000000000000000000000000000000000000000000600052602260045260246000fd5b60006002820490506001821680620003a657607f821691505b602082108103620003bc57620003bb6200035e565b5b50919050565b60008190508160005260206000209050919050565b60006020601f8301049050919050565b600082821b905092915050565b600060088302620004267fffffffffffffffffffffffffffffffffffffffffffffffffffffffffffffffff82620003e7565b620004328683620003e7565b95508019841693508086168417925050509392505050565b6000819050919050565b6000819050919050565b60006200047f6200047962000473846200044a565b62000454565b6200044a565b9050919050565b6000819050919050565b6200049b836200045e565b620004b3620004aa8262000486565b848454620003f4565b825550505050565b600090565b620004ca620004bb565b620004d781848462000490565b505050565b5b81811015620004ff57620004f3600082620004c0565b600181019050620004dd565b5050565b601f8211156200054e576200051881620003c2565b6200052384620003d7565b8101602085101562000533578190505b6200054b6200054285620003d7565b830182620004dc565b50505b505050565b600082821c905092915050565b6000620005736000198460080262000553565b1980831691505092915050565b60006200058e838362000560565b9150826002028217905092915050565b620005a98262000353565b67ffffffffffffffff811115620005c557620005c4620000f0565b5b620005d182546200038d565b620005de82828562000503565b600060209050601f83116001811462000616576000841562000601578287015190505b6200060d858262000580565b8655506200067d565b601f1984166200062686620003c2565b60005b82811015620006505784890151825560018201915060208501945060208101905062000629565b868310156200067057848901516200066c601f89168262000560565b8355505b6001600288020188555050505b505050505050565b610de380620006956000396000f3fe608060405234801561001057600080fd5b50600436106100b45760003560e01c806370a082311161007157806370a082311461018f5780638da5cb5b146101bf57806395d89b41146101dd578063a0712d68146101fb578063a9059cbb14610217578063dd62ed3e14610247576100b4565b806306fdde03146100b9578063095ea7b3146100d757806318160ddd1461010757806323b872dd14610125578063313ce5671461015557806342966c6814610173575b600080fd5b6100c1610277565b6040516100ce9190610a0d565b60405180910390f35b6100f160048036038101906100ec9190610ac8565b610305565b6040516100fe9190610b23565b60405180910390f35b61010f6103f7565b60405161011c9190610b4d565b60405180910390f35b61013f600480360381019061013a9190610b68565b6103fd565b60405161014c9190610b23565b60405180910390f35b61015d6105ae565b60405161016a9190610bd7565b60405180910390f35b61018d60048036038101906101889190610bf2565b6105c1565b005b6101a960048036038101906101a49190610c1f565b610698565b6040516101b69190610b4d565b60405180910390f35b6101c76106b0565b6040516101d49190610c5b565b60405180910390f35b6101e56106d6565b6040516101f29190610a0d565b60405180910390f35b61021560048036038101906102109190610bf2565b610764565b005b610231600480360381019061022c9190610ac8565b61083b565b60405161023e9190610b23565b60405180910390f35b610261600480360381019061025c9190610c76565b610958565b60405161026e9190610b4d565b60405180910390f35b6003805461028490610ce5565b80601f01602080910402602001604051908101604052809291908181526020018280546102b090610ce5565b80156102fd5780601f106102d2576101008083540402835291602001916102fd565b820191906000526020600020905b8154815290600101906020018083116102e057829003601f168201915b505050505081565b600081600260003373ffffffffffffffffffffffffffffffffffffffff1673ffffffffffffffffffffffffffffffffffffffff16815260200190815260200160002060008573ffffffffffffffffffffffffffffffffffffffff1673ffffffffffffffffffffffffffffffffffffffff168152602001908152602001600020819055508273ffffffffffffffffffffffffffffffffffffffff163373ffffffffffffffffffffffffffffffffffffffff167f8c5be1e5ebec7d5bd14f71427d1e84f3dd0314c0f7b2291e5b200ac8c7c3b925846040516103e59190610b4d565b60405180910390a36001905092915050565b60005481565b600081600260008673ffffffffffffffffffffffffffffffffffffffff1673ffffffffffffffffffffffffffffffffffffffff16815260200190815260200160002060003373ffffffffffffffffffffffffffffffffffffffff1673ffffffffffffffffffffffffffffffffffffffff168152602001908152602001600020600082825461048b9190610d45565b9250508190555081600160008673ffffffffffffffffffffffffffffffffffffffff1673ffffffffffffffffffffffffffffffffffffffff16815260200190815260200160002060008282546104e19190610d45565b9250508190555081600160008573ffffffffffffffffffffffffffffffffffffffff1673ffffffffffffffffffffffffffffffffffffffff16815260200190815260200160002060008282546105379190610d79565b925050819055508273ffffffffffffffffffffffffffffffffffffffff168473ffffffffffffffffffffffffffffffffffffffff167fddf252ad1be2c89b69c2b068fc378daa952ba7f163c4a11628f55a4df523b3ef8460405161059b9190610b4d565b60405180910390a3600190509392505050565b600560149054906101000a900460ff1681565b80600160003373ffffffffffffffffffffffffffffffffffffffff1673ffffffffffffffffffffffffffffffffffffffff16815260200190815260200160002060008282546106109190610d45565b92505081905550806000808282546106289190610d45565b92505081905550600073ffffffffffffffffffffffffffffffffffffffff163373ffffffffffffffffffffffffffffffffffffffff167fddf252ad1be2c89b69c2b068fc378daa952ba7f163c4a11628f55a4df523b3ef8360405161068d9190610b4d565b60405180910390a350565b60016020528060005260406000206000915090505481565b600560009054906101000a900473ffffffffffffffffffffffffffffffffffffffff1681565b600480546106e390610ce5565b80601f016020809104026020016040519081016040528092919081815260200182805461070f90610ce5565b801561075c5780601f106107315761010080835404028352916020019161075c565b820191906000526020600020905b81548152906001019060200180831161073f57829003601f168201915b505050505081565b80600160003373ffffffffffffffffffffffffffffffffffffffff1673ffffffffffffffffffffffffffffffffffffffff16815260200190815260200160002060008282546107b39190610d79565b92505081905550806000808282546107cb9190610d79565b925050819055503373ffffffffffffffffffffffffffffffffffffffff16600073ffffffffffffffffffffffffffffffffffffffff167fddf252ad1be2c89b69c2b068fc378daa952ba7f163c4a11628f55a4df523b3ef836040516108309190610b4d565b60405180910390a350565b600081600160003373ffffffffffffffffffffffffffffffffffffffff1673ffffffffffffffffffffffffffffffffffffffff168152602001908152602001600020600082825461088c9190610d45565b9250508190555081600160008573ffffffffffffffffffffffffffffffffffffffff1673ffffffffffffffffffffffffffffffffffffffff16815260200190815260200160002060008282546108e29190610d79565b925050819055508273ffffffffffffffffffffffffffffffffffffffff163373ffffffffffffffffffffffffffffffffffffffff167fddf252ad1be2c89b69c2b068fc378daa952ba7f163c4a11628f55a4df523b3ef846040516109469190610b4d565b60405180910390a36001905092915050565b6002602052816000526040600020602052806000526040600020600091509150505481565b600081519050919050565b600082825260208201905092915050565b60005b838110156109b757808201518184015260208101905061099c565b60008484015250505050565b6000601f19601f8301169050919050565b60006109df8261097d565b6109e98185610988565b93506109f9818560208601610999565b610a02816109c3565b840191505092915050565b60006020820190508181036000830152610a2781846109d4565b905092915050565b600080fd5b600073ffffffffffffffffffffffffffffffffffffffff82169050919050565b6000610a5f82610a34565b9050919050565b610a6f81610a54565b8114610a7a57600080fd5b50565b600081359050610a8c81610a66565b92915050565b6000819050919050565b610aa581610a92565b8114610ab057600080fd5b50565b600081359050610ac281610a9c565b92915050565b60008060408385031215610adf57610ade610a2f565b5b6000610aed85828601610a7d565b9250506020610afe85828601610ab3565b9150509250929050565b60008115159050919050565b610b1d81610b08565b82525050565b6000602082019050610b386000830184610b14565b92915050565b610b4781610a92565b82525050565b6000602082019050610b626000830184610b3e565b92915050565b600080600060608486031215610b8157610b80610a2f565b5b6000610b8f86828701610a7d565b9350506020610ba086828701610a7d565b9250506040610bb186828701610ab3565b9150509250925092565b600060ff82169050919050565b610bd181610bbb565b82525050565b6000602082019050610bec6000830184610bc8565b92915050565b600060208284031215610c0857610c07610a2f565b5b6000610c1684828501610ab3565b91505092915050565b600060208284031215610c3557610c34610a2f565b5b6000610c4384828501610a7d565b91505092915050565b610c5581610a54565b82525050565b6000602082019050610c706000830184610c4c565b92915050565b60008060408385031215610c8d57610c8c610a2f565b5b6000610c9b85828601610a7d565b9250506020610cac85828601610a7d565b9150509250929050565b7f4e487b7100000000000000000000000000000000000000000000000000000000600052602260045260246000fd5b60006002820490506001821680610cfd57607f821691505b602082108103610d1057610d0f610cb6565b5b50919050565b7f4e487b7100000000000000000000000000000000000000000000000000000000600052601160045260246000fd5b6000610d5082610a92565b9150610d5b83610a92565b9250828203905081811115610d7357610d72610d16565b5b92915050565b6000610d8482610a92565b9150610d8f83610a92565b9250828201905080821115610da757610da6610d16565b5b9291505056fea264697066735822122032c365adfa32972c95c42442bdec8d6396475a65f8c6273cda5d833414433d7464736f6c63430008100033a264697066735822122009ff74229b4b9455c242dc0347c23d4b35a24220ef6e43b15034d42389c8160164736f6c63430008100033",
  "immutableReferences": {},
  "source": "// SPDX-License-Identifier: MIT\r\n\r\npragma solidity ^0.8.16;\r\n\r\nimport './ERC20.sol';\r\n\r\ncontract CoinFactory{\r\n    ERC [] public coins;\r\n\r\n    function create(string memory _name, string memory _symbol) public{\r\n        ERC coin = new ERC(_name, _symbol, address(this));\r\n        coins.push(coin);\r\n    }\r\n}",
  "sourcePath": "C:\\Users\\Lucas Matheus\\Documents\\Solidity\\Estudos\\3008\\contracts\\CoinFactory.sol",
  "compiler": {
    "name": "solc",
    "version": "0.8.16+commit.07a7930e.Emscripten.clang"
  },
  "schemaVersion": "3.4.9",
  "updatedAt": "2022-08-30T23:48:26.693Z",
  "networkType": "ethereum",
  "devdoc": {
    "kind": "dev",
    "methods": {},
    "version": 1
  },
  "userdoc": {
    "kind": "user",
    "methods": {},
    "version": 1
  }
}